:100000000C943C010C9474010C9474010C947401D4
:100010000C9474010C9474010C9474010C9474018C
:100020000C9474010C9474010C9474010C940813D6
:100030000C94C4120C94D7130C9474010C94740196
:100040000C9474010C9474010C9474010C94B3130B
:100050000C9474010C9474010C9474010C9474014C
:100060000C9474010C9474010C9474010C9474013C
:100070000C9474012B0014001A00080015001700DE
:100080001C0018000C00120013002A0029000400B4
:100090001600070009000A000B000D000E000F00FB
:1000A00033003400E1001D001B00060019000500AC
:1000B000110010003600370038002800E0000B0067
:1000C000E200E30001512C000000025150005100F9
:1000D00052004F0035001E001F00200021002200AA
:1000E0002300240025002600270001004C003A00D0
:1000F0003B003C003D003E003F002D002E002F0045
:100100003000310001004000410042004300440043
:100110004500A800AC004B004E00010001000100AA
:10012000010001000100010000000351AB00AA0022
:10013000A900AE0035021E021F0220022102220287
:1001400023022402250226022702010001000100E9
:10015000010001000100010001002D022E022F020A
:100160003002310201000100010001000100010024
:100170000100010001004A004D00010001000100E2
:100180000100010000000100000002510100010017
:100190000100010005010980A101850319012AB7A9
:1001A00000150126B700950175108100C0050C09E6
:1001B00001A101850419012AA002150126A00295BA
:1001C0000175108100C005010906A101050719E0AC
:1001D00029E715002501950875018102950175082B
:1001E00081010507190029FF150026FF00950675F6
:1001F00008810005081901290595057501910295E9
:100200000175039101C009023B00020100A0FA0937
:100210000400000103010100092111010001224035
:100220000007058103080001090401000103000023
:10023000000921110100012232000705820320007C
:100240000112010002000000087070545301000107
:10025000020001120351007500610072006B002062
:10026000004C00500000000A034E00610073007053
:10027000000000040309040011241FBECFEFD4E0E6
:10028000DEBFCDBF04B603FE18C08091F801909187
:10029000F901A091FA01B091FB018730904BA74082
:1002A000B04B59F41092F8011092F9011092FA0132
:1002B0001092FB01E0E0F8E3099521E0AEE4B1E043
:1002C00001C01D92A83FB207E1F711E0A0E0B1E044
:1002D000E8E1FDE202C005900D92AE34B107D9F716
:1002E0000E94FE130C9474160C9400002091E400FC
:1002F0003091E50095E6A9012091EC00822F8170F4
:1003000020FF06C08091E80080FF06C080E00895CD
:100310002091E80022FD1AC08091E701882389F02E
:10032000853089F08091EB0085FD0FC02091E400BD
:100330003091E50042175307F9F29150E1F684E05D
:10034000089582E0089583E0089581E00895EF9292
:10035000FF920F931F93CF937C018B010E94760134
:10036000C82F811117C08091E80085FD0BC08091D6
:10037000E8008E778093E8000E947601882399F345
:10038000C82F08C0F70181917F018093F1000150CF
:10039000110949F78C2FCF911F910F91FF90EF908A
:1003A00008958091E90187FF13C08091E80082FFE2
:1003B00006C08091E8008B778093E80004C08091AC
:1003C000E7018111F2CF08958091E7018823D9F3E5
:1003D0008091E80080FFF8CF8091E8008E77ECCF25
:1003E000982F9093E900242F762F50E0891731F051
:1003F0007091EC002091ED005091F00021FD07C0BC
:100400009F5F953071F78093E90081E00895309106
:10041000EB003E7F3093EB003091ED003D7F309359
:10042000ED003091EB0031603093EB007093EC0005
:100430002093ED005093F0002091EE0027FDE0CFD7
:1004400080E00895FC018091EF019091F001861702
:100450009707A0F06115710529F49091E8009E7747
:100460009093E80090E06115710551F4911108C076
:100470008091E80082FF32C080E00895BC01F2CF95
:100480008091E7018823B1F18530B1F18091E800D6
:1004900083FD2EC08091E80082FDEACF8091E800C4
:1004A00080FFE1CF2091F20030E06115710519F075
:1004B0002830310558F091E02830310509F090E0FE
:1004C0002091E8002E772093E800CDCF8191809392
:1004D000F100615071092F5F3F4FE7CF8091E70135
:1004E000882341F0853041F08091E80083FFC0CF40
:1004F00081E0089582E0089583E0089508950895C5
:100500008091DC0108952FB7F8948091F1019091CA
:10051000F201A091F301B091F4012FBF08959C0165
:10052000FC0132969FEF80E04191461751F09F3FCA
:1005300019F4411101C0982F8F5F8630A9F79F3FB2
:1005400009F40895290F311D97FD3A95F901628349
:1005500008952091D5013091D6012817390771F0FF
:100560009093D6018093D501E091D301F091D4010D
:10057000309721F00084F185E02D099508952091B0
:10058000D1013091D2012817390771F09093D2012F
:100590008093D101E091D301F091D401309721F003
:1005A0000680F781E02D09950895E091D301F0913F
:1005B000D401309729F00190F081E02D099508953C
:1005C00080E0089580E00895F894E82FE295EF70B8
:1005D000F0E031A1282F2F7081E090E001C0880F5A
:1005E0002A95EAF7982F9095932391A392A1892BAE
:1005F00082A3789408959091BD0192FF06C0282FA0
:1006000028712830F9F4877F846093FF06C0282F73
:1006100028712831F1F4877E84612091BE0120FF8A
:1006200006C0382F38713830D9F4877F816021FFB8
:1006300006C0282F28712831D1F4877E816194FD6E
:10064000877E0895282F24712430F9F68B7F8860E7
:10065000DCCF282F2471243101F78B7E8861DDCF18
:10066000382F3171313019F78E7F8860E0CF282F15
:100670002171213121F78E7E8861E1CF282FE62F6D
:100680007430D0F46C30C0F4872F90E06CE070E0F0
:100690000E94D715E80FF92FF11D822F90E060E33B
:1006A00070E00E94D715E80FF91FEE0FFF1FEC58FE
:1006B000FF4F85919491089580E090E00895CF9345
:1006C000DF93EC0182389105A9F1D8F581339105CA
:1006D00009F496C048F58932910509F48AC08A97D1
:1006E00009F495C0C11522E5D20708F0B6C0C115BE
:1006F00031E5D30708F02BC1C83ED10508F09CC0F6
:10070000C03ED10560F5C83AD10508F087C0C53AAA
:10071000D10508F0F2C0C130D10509F12097F9F0F8
:10072000C430D105E0F440C08533910509F45AC0C6
:10073000C997C1F68091BD01837089F0C0EED0E009
:100740000EC0833E910599F170F4803E910501F150
:10075000823E910539F68091BD0182FD21C0CE0116
:10076000DF91CF910895863E910561F1873E910515
:1007700071F1843E910509F0B5CF8091BE0181FFF2
:10078000EECF8091BD01C7EED0E084FD0DC0E7CF74
:100790008091BD0180FD0FC19091BE0190FFDFCF20
:1007A000C3EED0E084FFDBCFD0E0C0E0D8CF8091B3
:1007B000BD0182FD03C19091BE0190FDBFCF84FFBA
:1007C000CECFF2CF8091BD0183FDDDCFC8CF809128
:1007D000BD0183FDF6C09091BE0191FFF0CFC4EE44
:1007E000D0E0BDCF8091BD0185FFB9CFC9E2D0E097
:1007F000B6CF8091BD0185FFB2CFC5E3D0E0AFCFCA
:100800008091BD0186FFABCFCAE2D0E0A8CF809136
:10081000BD0186FFA4CFC1E3D0E0A1CFCF3BD1057E
:1008200018F6C85AD0E0CC0FDD1FC05FDE4F09902C
:10083000D881C02DD46493CFC11540E5D40708F00A
:1008400067C0C11580E4D80708F05FC0CE019A9553
:1008500081159F4108F483CFA7CFC11536E5D30793
:1008600030F5C11545E5D40708F08CC0C11584E505
:10087000D80708F082C09C2F969596959E0123700C
:100880003327C115D34508F467C0C1E0D0E002C0EA
:10089000CC0FDD1F2A95E2F7892F90E075E0880FD5
:1008A000991F7A95E1F7C82BD92BDA6858CFC11573
:1008B0008AE5D80778F4C11529E5D20708F06DC09C
:1008C000C11538E5D30708F46FCFDC2FCC27C06FF4
:1008D000D06A45CFCE0190568115904208F064CF82
:1008E0008D2F8F710E94FB0290E0982F8827882718
:1008F0009F719C012C2BE9014EC0C55AD0E0C35F0B
:10090000DE4FC881D0E0D0642ACFDF70D06A27CF15
:10091000CE01A4E096958795AA95E1F783702C2FD8
:1009200026952695237030E0B5E0220F331FBA9547
:10093000E1F7382B8C2F8370C1E0D0E002C0CC0FE0
:10094000DD1F8A95E2F7C22BD32BDC6808CFDC2FA2
:10095000CC27C16FD06A03CFC1E0D0E002C0CC0F7A
:10096000DD1F2A95E2F7892F90E0E5E0880F991FB7
:10097000EA95E1F7C82BD92BE8CFDC2FCC27C46F41
:10098000D06AEDCE8C2F0E94FB02C82FD0E0DC2F66
:10099000CC27CC27DF71D062E2CE8C2F8F700E94E3
:1009A000FB0234E0D695C7953A95E1F7CF709C2FBE
:1009B000EC01D069D4CEC9E3D0E0D1CEC2EED0E014
:1009C000CECEC6EED0E0CBCE8091AE01811110929A
:1009D000AE01089580959091AD0198239093AD015B
:1009E00008958091A20190917101981301C008951A
:1009F0008F5F8770FACFCF92DF92FF920F931F9392
:100A0000CF93DF936C010091BC018091AF01082B63
:100A1000C7E0D0E010E0FC2EC8010C2E02C0959576
:100A200087950A94E2F780FD0CC02197A0F7F12C7E
:100A30008F2DDF91CF911F910F91FF90DF90CF907D
:100A40000895B6018C2F0E943E030E945F03019718
:100A500061F3EECFCF93DF93EC010E94FB04BE0164
:100A60000E943E030E945F03DF91CF910895282FDB
:100A7000943088F58C3078F5892F90E06CE070E048
:100A80000E94D715820F911DA82FA77023E096957D
:100A900087952A95E1F763E070E00E94D715FC0185
:100AA000E75AFE4F50E040E080E0219130E00A2E0E
:100AB00002C0369527950A94E2F721703327042E59
:100AC00001C0220F0A94EAF7822B4F5F5F4F433039
:100AD000510559F7089580E00895CF93DF93282FAB
:100AE000362F9430B0F58C30A0F5892F90E06CE073
:100AF00070E00E94D715820F911D282F2770E1E02A
:100B000001C0EE0F2A95EAF723E0969587952A957E
:100B1000E1F763E070E00E94D715DC01A75ABE4FF1
:100B200050E040E0632F70E08D91ED0121979B0133
:100B3000042E02C0369527950A94E2F7217021957C
:100B400028272E23282728834F5F5F4F43305105E6
:100B500059F7DF91CF910895FC01808191810E9426
:100B60002A0592959F70963091F058F4925F9F708D
:100B7000923058F4803F19F030F4883E30F481E030
:100B800008959A5FF4CF843FD1F380E00895883EC2
:100B9000B0F3813FD1F7F3CF8093D8017093DA019E
:100BA0006093D9018091E701843001F582E0809360
:100BB000E9008FEF9091E800815095FD06C095ED1A
:100BC0009A95F1F700008111F5CF8091E80085FF3B
:100BD0000DC050E040E063E070E088ED91E00E94DD
:100BE000A7018091E8008E778093E8000895BC010A
:100BF00084E00E94CC050895BC0183E00E94CC05EE
:100C00000895CF93DF93EC0181E08093E9008FEFAB
:100C10009091E800815095FD06C095ED9A95F1F709
:100C200000008111F5CF8091E80085FF14C050E0ED
:100C300040E068E070E0CE010E94A7018091E800EA
:100C40008E778093E80088E0FE01ADEDB1E0019081
:100C50000D928A95E1F7DF91CF91089581E080931D
:100C6000E00080E28093D8001092C9008FE19EE4FA
:100C70000197F1F700C0000087E090EBDC01809362
:100C8000F8019093F901A093FA01B093FB0188E178
:100C90009CE00FB6F894A895809360000FBE9093E7
:100CA0006000FFCFCF9384E090E00E943216C82FFF
:100CB00082E290E00E943216982F8C2FCF910895F7
:100CC000A8E0B0E0E6E6F6E00C94F0158E010F5FC8
:100CD0001F4F88E0F80111928A95E9F79EE3E92E0B
:100CE00091E0F92E680122E4422E21E0522E662482
:100CF0006394712C4EE4842E41E0942EF70181918F
:100D00007F018F3F09F445C0F894E82FE295EF701A
:100D1000F0E021A18F70A30102C0440F551F8A95F6
:100D2000E2F7CA01922F982B91A392A18095892373
:100D300082A3789400C0E2E4F1E021E030E0B12C3D
:100D4000A12C41914F3F09F481C0A42FA295AF700F
:100D5000B0E090968C9190E04F7002C09595879589
:100D60004A95E2F780FD72C0C901A82AB92A220F6C
:100D7000331F8E169F0629F7F701319780818F3F29
:100D800011F00E94E40250EA5A95F1F7F601B1829F
:100D9000A082F2E0CF0ED11C4E145F0409F0AECF5A
:100DA00048E050E0B80184EB91E00E942516FF2452
:100DB000F394009709F4F12C892B09F44AC088E0D8
:100DC000F801A4EBB1E001900D928A95E1F781E082
:100DD0008093B2010E9483029093B1018093B0018D
:100DE0002091B0013091B1014FB7F8948091F10199
:100DF0009091F201A091F301B091F4014FBF821BD9
:100E0000930B059750F18091B4019091B5019093A7
:100E1000C0018093BF018091B6019091B70190937A
:100E2000C2018093C1018091B8019091B901909362
:100E3000C4018093C3018091BA019091BB0190934A
:100E4000C6018093C5011092B20107C090E080E016
:100E50008CCF8091B2018111C3CF8F2D2896E0E114
:100E60000C940C168091AD019091AC01892B80936C
:100E700050019091AE01992391F0892B80935001FC
:100E800020E082E591E0FC013191CF0131112F5F2B
:100E9000F1E088359F07B9F721110E94E40448E08A
:100EA00050E064EA71E080E591E00E942516892B0C
:100EB000A9F088E0E0E5F1E0A4EAB1E001900D924C
:100EC0008A95E1F7E091D301F091D401309731F0A8
:100ED0000280F381E02D80E591E00995089590E08E
:100EE00080E00E94BF0290E080E00E94A902109280
:100EF000AC010E94320708958093BC010E946F07E5
:100F0000089521E030E001C0220F8A95EAF720958C
:100F10008091BC0182230E947C0708959091A301D7
:100F2000809589238093A301282F277091F4282F7F
:100F3000082E000C330B9217130659F09091BE0146
:100F400092FF07C08595859585950E94810710922F
:100F5000A301089521E030E001C0220F8A95EAF74D
:100F60008091BC01822B0E947C0708958093AF0181
:100F70000E946F0708951092AD01E2E5F1E086E06E
:100F8000DF011D928A95E9F70E946F070895AAE292
:100F9000B0E0EDECF7E00C94FD1589EE91E02091C6
:100FA000F100FC012193CF01F1E0813F9F07B9F7E8
:100FB0008091EA01833009F46EC0B8F4813009F4FD
:100FC00045C0823009F4AFC08091E80083FF7BC246
:100FD0008091E9019091EA019A3008F074C2E92FFA
:100FE000F0E0EA58F94E0C94E8158A3009F48AC00A
:100FF0008B3009F46DC0893039F78091E901813275
:1010000019F78091ED019091EE010297E8F6809139
:10101000E800877F8093E8008091E80082FF36C077
:101020008091F200823031F48091F100813011F032
:10103000863021F48091F1008093DC018091E800FA
:101040008B778093E8000E94D101BECF8091E901A7
:10105000813A09F0B9CF8091E800877F8093E8005A
:101060008091ED019091EE01892B61F468E08DEDA6
:1010700091E070E00E9422028091E8008B778093DB
:10108000E800A2CF60E090E080E0F3CF8091E7013C
:101090008111C2CF99CF8091E901813A09F094CFB3
:1010A0008091ED019091EE01892B09F08DCF809117
:1010B000E800877F8093E8008091E80080FFFCCF04
:1010C00080910C018093F1008091E8008E77B9CF78
:1010D0008091E901813209F077CF8091ED01909103
:1010E000EE01892B09F070CF8091E800877F809313
:1010F000E8000E94D1018091EB0180930C010E94D5
:10110000BB0762CF8091E901813209F05DCF809108
:10111000E800877F8093E8000E94D1018091EC0174
:101120008093DB0151CF8091E901813A09F04CCFE6
:101130008091E800877F8093E8008091E80080FF3D
:10114000FCCF8091DB01BECF803899F0823809F066
:10115000BAC18091ED018F70853008F0B4C18093E1
:10116000E9008091EB0085FB882780F91092E90067
:1011700006C08091E5019091E60191118260909105
:10118000E800977F9093E8008093F1001092F100BF
:101190008091E8008E7793C1882309F481C1823061
:1011A00009F091C18091EB01811184C18091ED0121
:1011B0008F702FEF280F243008F085C18093E9004D
:1011C0002091EB0020FF76C1933031F48091EB0049
:1011D00080628093EB006EC19091EB0090619093E0
:1011E000EB0021E030E001C0220F8A95EAF720935E
:1011F000EA001092EA008091EB008860EACF81114A
:1012000062C11091EB011F778091E3008078812B00
:101210008093E3008091E800877F8093E8000E943C
:10122000D1018091E80080FFFCCF8091E3008068CD
:101230008093E30082E0111183E08093E70143C1D2
:101240008058823008F03FC18091EB019091EC0111
:101250008C3D23E09207A1F583E08A838AE28983AB
:101260004FB7F894DE01139620E03EE051E2E32F01
:10127000F0E050935700E49120FF03C0E295EF7037
:101280003F5FEF708E2F90E0EA30C0F0C7968D93ED
:101290009D932F5F243159F74FBF8091E800877FDE
:1012A0008093E8006AE270E0CE0101960E9422027B
:1012B0008091E8008B778093E80005C1C096E7CF66
:1012C0004091ED015091EE01292F33272330310554
:1012D00009F444C078F52130310509F46FC08BE37F
:1012E00090E0E6E0F2E02230310509F0ECC0209118
:1012F000E800277F2093E8002091EF013091F00172
:101300008217930708F49C0140E02115310509F08C
:1013100064C0411162C08091E80082FDC9CF809114
:10132000E701882329F2853019F28091E80083FFD4
:10133000F2CFBECF21323105A9F12232310509F0B9
:10134000C2C04115510509F443C04130510509F0AF
:10135000BAC082E390E0E4E9F1E0C9CF9927813097
:101360009105C1F0009759F0029709F0ACC0E3E590
:10137000F2E0E4918E2F90E0E3E5F2E007C0E3E7CE
:10138000F2E0E4918E2F90E0E3E7F2E0009709F4B9
:101390009AC0ADCFE7E6F2E0E4918E2F90E0E7E669
:1013A000F2E0F4CF4115510571F04130510509F0DB
:1013B0008AC089E090E0E1E3F2E099CF82E190E039
:1013C000E1E4F2E094CF89E090E0E8E1F2E08FCF51
:1013D00080E490E0E6ECF1E08ACF8091E701882399
:1013E00009F466CF853009F463CF8091E80083FD6E
:1013F0005FCF8091E80082FD8ECF8091E80080FF72
:1014000084CF8091F20090E02115310519F08830E9
:10141000910550F041E0089709F040E08091E80024
:101420008E778093E80071CF44914093F10031961C
:10143000215031090196E8CF803809F044C08091ED
:10144000E800877F8093E8008091E8018093F100B5
:101450009FCE811138C01091EB011230A0F5809120
:10146000E800877F8093E8001093E8010E94D10193
:10147000112311F084E005C08091E30087FDFACFCD
:1014800081E08093E70142E061EC81E00E94F0019D
:1014900042E261EC82E00E94F0018091E70113C01A
:1014A0008091EB01813079F481E0933009F080E0A4
:1014B0008093E6011092E9008091E800877F809395
:1014C000E8000E94D1018091E80083FF0AC080916A
:1014D000E800877F8093E8008091EB008062809332
:1014E000EB00AA96E3E00C9419160E94BB072FEFBD
:1014F00084E39CE0215080409040E1F700C0000070
:1015000088E19CE00FB6F894A895809360000FBE28
:1015100090936000FFCF882321F00E94EA040E948C
:1015200032070895882339F09091AD01982B90935C
:10153000AD010E9432070895882391F19CEF980F26
:10154000913A80F4E2E5F1E028E531E091918913E8
:1015500003C0DF0111971C922E173F07B9F70E94B5
:101560003207089590E2980F983050F4877091E018
:1015700001C0990F8A95EAF7892F0E94EA04EFCFFC
:101580009BE5980F933028F490E080E00E94BF0222
:101590000895885A873120F490E080E00E94A902E3
:1015A0000895CF93C82F8823B1F08CEF8C0F813A28
:1015B00000F5E2E5F1E088E591E0DF012D91C21749
:1015C00061F08A179B07D1F76C2F80E591E00E94AC
:1015D0008F020E943207CF9108952191C21303C058
:1015E000DF0111971C928E179F07B9F70E943207EF
:1015F000EBCF80E28C0F883068F4C77021E030E0D8
:1016000001C0220FCA95EAF78091AD01822B809329
:10161000AD01DFCFEBE5EC0FE33040F4F0E0E35F4A
:10162000FE4F808190E00E94BF02D5CFC85AC731DB
:1016300090F6EC2FF0E0EE0FFF1FE05FFE4F808191
:1016400091810E94A902C7CF0F931F93CF93DF937D
:10165000C62FD42F022FFC0182818823A9F060932A
:10166000F7010E9483029093F6018093F501C77001
:1016700081E001C0880FCA95EAF70E94920ADF91C3
:10168000CF911F910F9108958091F701681341C088
:101690002091F5013091F6014FB7F8948091F10156
:1016A0009091F201A091F301B091F4014FBF821B20
:1016B000930B883C910568F510E21D0F6D17B9F08A
:1016C00080E2860F883040F4C77081E001C0880F47
:1016D000CA95EAF70E948B0A183048F481E09D2FE2
:1016E000977001C0880F9A95EAF70E94920A802F9E
:1016F0000E94D10A802F0E949C0A183008F0BFCFA8
:10170000D77081E001C0880FDA95EAF70E948B0A52
:10171000B6CFC77081E001C0880FCA95EAF7F6CF4F
:1017200068EE7EEF90E080E00E945E1660E082E06E
:1017300090E00E94401660E083E090E00E94401636
:101740001092AF0160E084E090E00E94401664E0F7
:1017500082E290E00E94401660E085E090E00E9406
:10176000401660E086E090E00E9440166FEF87E050
:1017700090E00E94401640E050E0BA0188E090E01E
:101780000E94521660E08DE090E00E94401640E01A
:1017900050E0BA0188E190E00E94521660E087E1D3
:1017A00090E00E94401640E050E0BA018CE190E0E9
:1017B0000E94521670E060E080E290E00E945E16A7
:1017C00040E050E0BA0188E190E00E94521640E00B
:1017D00050E0BA018FE090E00E94521640E050E0E5
:1017E000BA0183E190E00E9452160895CF93C09110
:1017F000BE01C2FB992790F9981791F080FBC2F9BE
:10180000C093BE016091BD0184E090E00E9440164B
:101810006C2F82E290E00E94401682E00E948E07C8
:10182000CF910895A5E0B0E0E8E1FCE00C94F41558
:101830007C01FC0183819481892B31F0808191812D
:1018400089238F3F09F010C42596ECE00C94101604
:101850000E94FB04182F682F89819A810E946D05D0
:1018600069817A81812F0E943E038C01843FFCE5CF
:101870009F0709F483C018F5893D9C4509F47AC097
:101880000A3D8CE5180709F489C0083D9CE5190755
:1018900009F526E241EE61EEC7010E94240B80911A
:1018A000A301877089F2F7018281882369F2809110
:1018B000BE0182FFC9CF82E00E948E07C5CF863F5E
:1018C000ECE59E0709F462C008F45CC0873F9C45C4
:1018D00009F460C0F7018281882309F4D6C310920D
:1018E000F7010430FDE51F0708F05BC00B3F2CE556
:1018F000120730F4C80182509C45449708F05BC041
:101900000E9452069093BE018093BD0101319CE577
:10191000190709F42BC108F0A7C00930FCE51F071F
:1019200009F40EC108F072C005303CE5130709F454
:10193000FFC008F057C003309CE5190709F4EEC05A
:1019400008F0F2C08091BD0181600230FCE51F0704
:1019500009F4E7C06091BD011091BE0184E090E000
:101960000E944016612F82E290E00E9440160E9481
:10197000BB0795CF27E245EE65EE8ECF26E241EE1E
:1019800060EE8ACF27E245EE64EE86CF26E241EE96
:1019900062EE82CF27E245EE66EE7ECF28E241E09E
:1019A000EBCF02363DE5130709F4AACF063A8DE5E1
:1019B000180709F4A5CF06312CE5120709F07DC3FD
:1019C0008091AD018A7A91E009F490E090935801FA
:1019D00069E2811165E380E591E00E948F020E9437
:1019E00032075DCF8091BD01806207302CE5120780
:1019F00009F497C08091BD01806108303CE5130770
:101A000008F48FC08091BD0180648BC00D308CE5DF
:101A1000180709F49FC0A0F48091BD018E7F0B30A0
:101A2000ECE51E0709F47DC08091BD018C600C308F
:101A3000FCE51F0708F475C08091BD018D7F71C062
:101A40008091BD018F7E0F302CE5120709F469C02B
:101A50008091BD01877F00313CE5130708F461C028
:101A60008091BD018F7D5DC00E3F8CE5180709F4A4
:101A700079C058F50531ECE51E0709F481C098F4EA
:101A80008091BD01837F03312CE5120709F449C021
:101A900008F470C00E94BB079091BD01892F97FB8D
:101AA00087F980583EC00C3F8CE5180709F444C004
:101AB00008F054C08091BE0181600B3FECE51E0729
:101AC00009F048CF8093BE0145CF0230FDE51F07E6
:101AD00009F462C090F48091BE018C7F01153DE550
:101AE000130781F398F18091BE01982F9095917022
:101AF0008E7F892B90FB81F9E5CF02369DE5190792
:101B000009F450C0063AEDE51E0709F452C003304F
:101B1000FDE51F0709F01ECF60E03FC08091BD01C9
:101B200082608093BD0116CF8091BD018460F9CFA2
:101B30008091BD018860F5CF8091BE018260C2CFE7
:101B40000E94BB078091BD018068EBCF8091BE01F0
:101B50008360B8CF8091BD018B7FE3CF8091BE01C0
:101B60008E7FB0CF8091BE018D7FACCF8091BD01C3
:101B70008F7BD7CF0E94BB078091BD018F77D1CFDC
:101B80008091BD0182FB992790F921E0922790FB7B
:101B900082F990FB83F9C5CF61E08EE090E00E946E
:101BA0004016D8CE9091BD01892F8F7E94FF806121
:101BB000B8CF9091BD01892F8E7F90FF8160B1CF0A
:101BC00085E36DC20E94BB073FEF84E39CE0315088
:101BD00080409040E1F700C000000E942E068091F6
:101BE000BE0182FB882780F991E089270E94F60BCD
:101BF000F701828100811181882309F445C0C80161
:101C00000E94FB04D82E682FC8010E946D05B80100
:101C10008D2D0E943E030E945F038C01882EF701E8
:101C2000D280B580B2943FE0B3228091A301877047
:101C3000C1F0AD2CDD20B1F0812F807F803421F008
:101C400080E2800F883068F08091BE0182FF09C079
:101C500082E00E948E078091A3018770AA24A3943A
:101C60008111A12C912E92942FE09222FBE0F91584
:101C700008F476C0E92DF0E0E058F94E0C94E81530
:101C800081E0B4CF80E0B2CFC8010E943705D82EE2
:101C9000BECF212F2F70C22E107F19F0C29490EF6B
:101CA000C922DD20B9F0CC2069F080E2800F8830B5
:101CB00010F0811009C08091AD01C82AC092AD0119
:101CC0000E943207802F4AC08091AC01C82AC0927E
:101CD000AC01F6CF802F0E949C0ACC2009F440C0B2
:101CE000005E083010F0811004C08C2D0E94EA04C0
:101CF00006C0C0948091AC01C822C092AC010E9481
:101D000032072EC0312F3F70C32E107F103219F0D2
:101D1000C29480EFC822882089F081E0881609F4F7
:101D200077C0DD2009F481C0BB2009F477C0F7013A
:101D3000858180FFC7CF8F70858370C02091BE01E1
:101D400022FD43C0DD20D9F1CC2039F08091AD01D6
:101D5000C82AC092AD010E94320780E00E94D10AD9
:101D6000E92DE850FF0B349710F40E94D502AA2009
:101D7000A9F08091A30180FD11C0F7011282859521
:101D8000859585950E94AA07C7010E94120C809133
:101D9000A3018595859585950E94810785E0F701CA
:101DA000DE01119601900D928A95E1F709811A8161
:101DB000C8010E943705B8010E943E0345CD80E06E
:101DC0000E949C0ACC2061F290CFDD20A1F090917E
:101DD000AE018C2D892BB11003C00E94920AC0CF96
:101DE000E1E0BE12FACF22FFBBCF981709F4B8CFBB
:101DF0008093AE01B5CFB11006C00E94E4048C2DD3
:101E00000E948B0AADCFF1E0BF1609F4A9CFF5CF40
:101E1000DD2031F022E02B1508F4A2CF8C2DDDCF90
:101E200031E03B1508F49CCFEACFBB2041F3F9E346
:101E30008F1209C02FEF37EE83E0215030408040F1
:101E4000E1F700C00000802F0E949C0A89CF812FFB
:101E500086958695837061F0813009F081CFC80145
:101E60009370D11002C090E080E00E94A90278CF68
:101E7000C8019370D11002C090E080E00E94BF02C0
:101E80006FCF812F837089F5D1106ACF402F429593
:101E900046954770440F440F802F8F70042E01C069
:101EA000880F0A94EAF7202F207104FF07C02FE063
:101EB00030E001C0220F4A95EAF720951695169555
:101EC0001370123069F050F43091AF01113029F0E5
:101ED000822B83230E94B60743CF832B822BFACF1A
:101EE000282B8091AF018227F5CF8695DD2011F058
:101EF000812F8170882309F433CF402F4295469576
:101F00004770440F440F802F8F70042E01C0880F3C
:101F10000A94EAF7202F207104FF07C02FE030E079
:101F200001C0220F4A95EAF7209516951695137071
:101F3000123069F050F43091BC01113029F0822B3D
:101F400083230E947C070CCF832B822BFACF282B74
:101F50008091BC018227F5CF1F70DD2029F0812FF1
:101F60000E94AA07802F39CF802F0E948B0A812FD1
:101F70000E948107F5CE802F92EF8916A9F198155E
:101F800070F0E0EF8E16D1F0F1EF8F1691F0DD20BA
:101F900009F45AC0B11096CE812F8F7129C023EF5A
:101FA000821649F134EF8312F2CF8091BE0182FD97
:101FB0002DC0812F8F71DD20D9F21AC0DD2079F07C
:101FC00081E08B1508F4CCCE1F7181E090E001C058
:101FD000880F1A95EAF79091BC018927B2CF92E059
:101FE0009B1508F4BDCEF0CF812F8F71D110C0CFDB
:101FF0000E94AA07B5CE80E0DD2009F4A2CF1F71B0
:1020000081E001C0880F1A95EAF79BCFDD2089F0A7
:102010001F71812F0E94AA078091BE0182FF07C015
:10202000812F880F880F880F83608093A301812FF1
:10203000DFCF81E00E948E07E1E0EB1508F090CE43
:1020400082E00E948E078CCEBB2059F0893309F0C4
:10205000FACEFFEF27EE33E0F15020403040E1F7B9
:10206000F0CE812F8F7184CF85E0DE011196019033
:102070000D928A95E1F7F701228189819A812111D8
:10208000E7CB0E943705182FEBCB0631FCE51F0785
:1020900009F0AECD80915801811192CD89E2E2E53F
:1020A000F1E028E531E09191891303C0DF01119738
:1020B0001C922E173F07B9F792CC0B352DE512076E
:1020C00009F4DECD68F401158CE5180709F47ACD22
:1020D0000F3D1C4509F08CCD0E94900B0E94750AA3
:1020E0000D35EDE51E0709F47ACD08F4CBCD083A9D
:1020F0001D45A1F37DCD1F93CF93DF938091700198
:10210000807F09F04EC080916D01882309F449C099
:102110002091A2011091710140916B01A0916C017D
:10212000C0916E01D0916F01B42FBA231217C9F17B
:1021300030E0209711F0BF3F21F42F5F3F4F277011
:10214000F5CFC90166E070E00E94D715FC01EE589A
:10215000FE4F81818A13F1CF80818413EECF82817B
:102160008111EBCF838194818C1B9D0B883C910561
:1021700020F7809170018F70806180937001C90198
:1021800066E070E00E94D715FC01E958FE4F90818F
:102190009F70906190838BE691E00E94120C0E94E8
:1021A000F104DF91CF911F910895A1E1B0E0EBED33
:1021B000F0E10C94F6158C0185E0F801DE011D9626
:1021C00001900D928A95E1F7D8011296EC90129742
:1021D0008BE6A82E81E0B82E60916E0170916F01A0
:1021E0006115710509F42CC190916B0120916C016E
:1021F000892F82238F3F09F423C14C911196EC91D2
:1022000011971396CD90DC90F0906D01D601A61B2E
:10221000B70BFF2009F4DFC080917001382F307FA9
:10222000A83CB10508F0A2C031116EC0FE2C2E13DF
:1022300014C0941312C0E11010C08F70806180939D
:102240007001C5010E94120C80917001F801858314
:102250008F2D6196EAE00C941216C114D10429F076
:10226000842F8E238F3F09F006C180E0F82FF17094
:10227000DF2E2091A201F091710180FD21C0EE209E
:1022800039F380917001816080937001F12CE0CF6F
:1022900030E0C90166E070E00E94D715DC01AE585D
:1022A000BE4F11968C911197E81307C08C9148137B
:1022B00004C012968C91E812E2CF2F5F3F4F277037
:1022C0002F13E6CF4D87EE878D859E850E942A05C8
:1022D000292F22952F70223058F0243080F49F70DF
:1022E00059F0D80115969C91907F31F4D12C0AC0F9
:1022F0009F7011F08823D1F3805E8830B8F3C80155
:102300000E94120CFD2CA4CF2E1306C0941304C0FF
:10231000F801EE2009F479C0C8010E94AC058823B9
:1023200009F1EE20F9F080917001803270F0209177
:102330006B0130916C0138872F831986DB86CA8642
:102340008C87CE0107960E94120C86E0F801ABE65E
:10235000B1E001900D928A95E1F70E947B10FF2475
:10236000F39476CFC8010E94120CF9CF31110AC044
:102370008BE691E00E94120C86E0D5011D928A95B1
:10238000E9F784CF2E130FC094130DC0E1100BC0DA
:10239000F8018583C8010E94120C86E0D5011D92C8
:1023A0008A95E9F755CFC8010E94AC058823D1F280
:1023B000EE20C1F280917001803238F220916B01E1
:1023C00030916C013A8329831B82DD82CC828E831B
:1023D000CE010196B8CFA83CB105F8F6FE2CEE2050
:1023E00009F22E131FC094131DC08091700180FD4F
:1023F00010C0982F907F69F0F8018583903F31F0ED
:10240000982F907F905F8F70892B8583C8010E94E1
:10241000120C86E0F801ABE6B1E001900D928A95CE
:10242000E1F716CFC8010E94AC0581118ECF8091D3
:102430007001816080937001C8010E94120C08CF66
:10244000EE2009F48FCFC8010E94AC05F82E882336
:1024500009F488CF86E0F801ABE6B1E001900D9277
:102460008A95E1F780916B0190916C010E942A0599
:102470000E947B10EDCE81E08E25F8CEA7E1B0E082
:10248000E4E4F2E10C94FE154B8B5C8B6D8B7E8B40
:102490008F8B61111092AC011A8A198A85E0FE01B6
:1024A0007396DE011D9601900D928A95E1F786E004
:1024B000FE013D96DE01179601900D928A95E1F797
:1024C000CE0107960E94D510811112C086E0FE0150
:1024D0003796DE01119601900D928A95E1F78A8573
:1024E0009B85892B29F08F81988589238F3F89F5DA
:1024F0008091A20190917101891317C06796E2E063
:102500000C941A1666E070E00E94D715DC01AE58F4
:10251000BE4F96E0FE01319601900D929A95E1F73B
:10252000209371010E94F104E3CF90E066E070E037
:102530000E94D7158E589E4F0E94D5108823F1F225
:102540008091A20190E00196877099278093A20163
:10255000CFCF8091710190E09C012F5F3F4F27709A
:1025600033274091A2014217130661F60E94BB0770
:10257000109271011092A20186E0EBE6F1E0DF011A
:102580001D928A95E9F7B4CF1F920F920FB60F9262
:1025900011242F933F934F935F936F937F938F9368
:1025A0009F93AF93BF93CF93DF93EF93FF93D0911C
:1025B000E900DF708091EC00C82FC17080FDC0E899
:1025C0001092E9008091F000877F8093F00078946A
:1025D0000E94C7071092E9008091F0008860809304
:1025E000F000CD2BCF70C093E900FF91EF91DF9108
:1025F000CF91BF91AF919F918F917F916F915F919B
:102600004F913F912F910F900FBE0F901F901895F3
:102610001F920F920FB60F9211242F933F934F9357
:102620005F936F937F938F939F93AF93BF93EF933A
:10263000FF938091E10082FF09C08091E20082FF58
:1026400005C08091E1008B7F8093E1008091E100E3
:1026500080FF17C08091E20080FF13C08091E200EC
:102660008E7F8093E2008091E20080618093E2009F
:102670008091D80080628093D80019BC85E0809357
:10268000E7018091E10084FF2BC08091E20084FF8C
:1026900027C084E089BD86E089BD89B5982F9170F7
:1026A00080FFFBCF8091D8008F7D8093D8008091F0
:1026B000E1008F7E8093E1008091E2008F7E809325
:1026C000E2008091E20081608093E2008091E80165
:1026D000882309F441C084E08093E7018091E701F9
:1026E0008091E10083FF27C08091E20083FF23C037
:1026F0008091E100877F8093E10082E08093E70191
:102700001092E8018091E1008E7F8093E10080913A
:10271000E2008E7F8093E2008091E20080618093EE
:10272000E20042E060E080E00E94F0018091F00071
:1027300088608093F000FF91EF91BF91AF919F91DE
:102740008F917F916F915F914F913F912F910F905A
:102750000FBE0F901F9018958091E30087FD93E0C6
:102760009093E701BBCF78941F921FB61F9211245C
:102770008F939F93AF93BF938091F1019091F2015A
:10278000A091F301B091F4010196A11DB11D8093B8
:10279000F1019093F201A093F301B093F401BF9182
:1027A000AF919F918F911F901FBE1F9018951F9200
:1027B0001FB61F9211248F939F93AF93BF93809165
:1027C000D701811113C08091F1019091F201A09184
:1027D000F301B091F4014196A11DB11D8093F10167
:1027E0009093F201A093F301B093F401BF91AF91E4
:1027F0009F918F911F901FBE1F901895CDB7DEB788
:102800002A970FB6F894DEBF0FBECDBF84B7877F7F
:1028100084BF0FB6F894A89580916000886180937A
:102820006000109260000FBE80E890E00FB6F89450
:1028300080936100909361000FBE82EE92E09093CE
:102840004F0180934E011092E2001092E1008091BE
:10285000E00081608093E0008091D8008F778093C2
:10286000D80019BC8091630081608093630010924E
:10287000B301809163008E7F8093630081E0809339
:10288000B3011092E2001092E1008091D8008F779E
:102890008093D8008091D80080688093D800809180
:1028A000D8008F7D8093D80084E089BD86E089BD03
:1028B00009B400FEFDCF1092E7011092E8011092DA
:1028C000E6011092E50142E060E080E00E94F00144
:1028D0008091E1008E7F8093E1008091E200816031
:1028E0008093E2008091E20088608093E200809112
:1028F000E0008E7F8093E0008091E200846080930E
:10290000E20078948091E7018823A1F01091E9001A
:102910001F709091EC00892F817090FD80E8182B3A
:102920001092E9008091E80083FD0E94C7071F70A4
:102930001093E90082E084BD93E095BD9AEF97BDC6
:1029400080936E0085E60E94E40284E60E94E40221
:1029500086E60E94E40287E60E94E40202E411E0B7
:10296000D8018D918D018F3F11F00E94E402B1E0FA
:102970000E341B07A9F788E0EFEBF1E0DF01282F09
:102980001D922A95E9F7E4EBF1E0DF011D928A95AB
:10299000E9F790E080E00E943A16883E9E4F11F0E1
:1029A0000E94900B82E090E00E9432168093C70153
:1029B0000E9452069093BE018093BD010E94600662
:1029C000EFE3FCE93197F1F700C000000E946006D8
:1029D0008091BF0180FF08C06FEF7FEF90E080E043
:1029E0000E945E160E942E0683E090E00E9432163E
:1029F0000E94B60780E091E09093D4018093D301C8
:102A000058E1C52ED12C60E4962E77ECA72E71E00C
:102A1000B72EE4E08E2E8091E70116E0853009F4B0
:102A200089C00E946006882359F08FB7F8944091BE
:102A3000F1015091F2016091F3017091F4018FBFA7
:102A4000EFEBF1E0A8ECB1E010E000E0702F819135
:102A500091912D913D912817390709F47BC02827C2
:102A6000392760E0EE24E394F12CA9014E215F2187
:102A7000452B09F469C069837A839C012E213F218B
:102A800091E0232B09F490E09B830E9483028160F4
:102A9000782F9D838C8349815A816B818D810E941F
:102AA0003E12000F111FF801E853FE4F8081918103
:102AB000E826F926F182E0820E94D5029091D001A9
:102AC000891709F4A8CF8093D001A5CF8091E701A1
:102AD000843009F11092D7010FB6F894A895C092EE
:102AE00060000FBE9092600083B7817F846083BFD7
:102AF00083B7816083BF7894889583B78E7F83BFC7
:102B00000FB6F894A895809160008861809360006A
:102B1000109260000FBE8091E601882359F00E9458
:102B20006006EFEBF1E081919191892B51F5AE16A2
:102B3000BF06C9F78091E701853009F4C7CF0E942D
:102B4000BB070E94D5026DCF6F5FEE0CFF1C6C308F
:102B500009F08BCF0F5F1F4F0430110509F076CFBE
:102B60008FEF8E838F8318860E9483028160782F77
:102B70009A8789874E815F8168858A850E943E1287
:102B80009BCF89BC19BD09B400FEFDCF8091D80050
:102B90008F7D8093D8008091E00082608093E00078
:102BA0008091E00081FDFCCF0E94BB07C3CF0024D1
:102BB000552704C0080E591F880F991F009729F048
:102BC00076956795B8F37105B9F7802D952F08951F
:102BD000EE0FFF1F0590F491E02D09942F923F9284
:102BE0004F925F926F927F928F929F92AF92BF921D
:102BF000CF92DF92EF92FF920F931F93CF93DF93C9
:102C0000CDB7DEB7CA1BDB0B0FB6F894DEBF0FBE25
:102C1000CDBF09942A88398848885F846E847D8472
:102C20008C849B84AA84B984C884DF80EE80FD8074
:102C30000C811B81AA81B981CE0FD11D0FB6F894EA
:102C4000DEBF0FBECDBFED010895FB01DC0104C066
:102C50008D910190801921F441505040C8F7881B94
:102C6000990B0895F999FECF92BD81BDF89A9927E5
:102C700080B50895A8E1B0E042E050E00C946616FB
:102C8000262FF999FECF92BD81BDF89A019700B425
:102C9000021639F01FBA20BD0FB6F894FA9AF99AC5
:102CA0000FBE08950396272F0E9441160E944016DA
:102CB000252F0E944116242F0C9441160196272F90
:102CC0000E9441160C944016DC01CB01FC01F999DD
:102CD000FECF06C0F2BDE1BDF89A319600B40D9268
:102CE00041505040B8F70895F894FFCFA408CC089D
:102CF000630ACC08630AFF082009630A1C0A290A30
:102D0000490E490E820E820E270FB00EB00EB00E85
:082D1000410FAC0FBB0FBB0F1C
:102D1800800201067F02FC05F7057E02018182839D
:102D2800E200E900EA00B500B600B700CD00830173
:102D3800CC008A0192019401210223022402250277
:102D4800260227022A02B300B4006F0070006564EF
:0E2D5800666736353433309695949392919099
:00000001FF
