:100000000C943C010C9474010C9474010C947401D4
:100010000C9474010C9474010C9474010C9474018C
:100020000C9474010C9474010C9474010C9493144A
:100030000C943D150C9448140C9474010C947401A8
:100040000C9474010C9474010C9474010C946F144E
:100050000C9474010C9474010C9474010C9474014C
:100060000C9474010C9474010C9474010C9474013C
:100070000C94740105010980A101850319012AB7B7
:1000800000150126B700950175108100C0050C0907
:1000900001A101850419012AA002150126A00295DB
:1000A0000175108100C005010906A101050719E0CD
:1000B00029E715002501950875018102950175084C
:1000C00081010507190029FF150026FF0095067517
:1000D000088100050819012905950575019102950A
:1000E0000175039101C009023B00020100A0FA0959
:1000F0000400000103010100092111010001224057
:100100000007058103080001090401000103000044
:10011000000921110100012232000705820320009D
:100120000112010002000000087070545301000128
:10013000020001120351007500610072006B002083
:10014000004C00500000000A034E00610073007074
:10015000000000040309042B0014001A0008001515
:100160000017001C0018000C00120013002A0029C0
:100170000004001600070009000A000B000D000E25
:10018000000F0033003400E1001D001B00060019C1
:10019000000500110010003600370038002800E08C
:1001A000000B00E200E30001512C0000000251505E
:1001B00000510052004F0035001E001F002000219A
:1001C0000022002300240025002600270001004C07
:1001D000003A003B003C003D003E003F002D002E59
:1001E000002F003000310001004000410042004378
:1001F0000044004500A800AC004B004E0001000187
:10020000003F00010001000100010000000351ABAC
:1002100000AA00A900AE0035021E021F0220022122
:1002200002220223022402250226022702010001E3
:10023000000100010001000100010001002D022E5B
:10024000022F023002310201000100010001000111
:100250000001000100010001004A004D0001000101
:100260000001000100010000000100000002510136
:10027000000100010001000011241FBECFEFD4E0F7
:10028000DEBFCDBF04B603FE18C08091F601909189
:10029000F701A091F801B091F9018730904BA74088
:1002A000B04B59F41092F6011092F7011092F80138
:1002B0001092F901E0E0F8E3099521E0ACE4B1E047
:1002C00001C01D92A63FB207E1F711E0A0E0B1E046
:1002D000E4E9FCE202C005900D92AC34B107D9F715
:1002E0000E946D120C9423160C940000382F262FB8
:1002F0009430A8F58C3098F5892F90E06CE070E090
:100300000E948615830F911D382F377041E001C080
:10031000440F3A95EAF733E0969587953A95E1F7D9
:1003200063E070E00E948615FC01EE55FE4F80E010
:1003300090E0622F70E05191DF0111979B01082E30
:1003400002C0369527950A94E2F72170219525275A
:10035000242325272C9301968330910561F7089576
:10036000282F943088F58C3078F5892F90E06CE058
:1003700070E00E948615820F911DA82FA77023E0C0
:10038000969587952A95E1F763E070E00E948615BF
:10039000FC01EE55FE4F40E050E080E0219130E05E
:1003A0000A2E02C0369527950A94E2F7217033276A
:1003B000042E01C0220F0A94EAF7822B4F5F5F4F91
:1003C0004330510559F7089580E008958091BF01A9
:1003D0009091BE01981301C008958F5F8770FACF86
:1003E000E0E5F1E09191891303C0DF0111971C92C0
:1003F00091E0E635F907B1F70895982F909580912F
:10040000B60189238093B60108958091B7018111C7
:100410001092B7010895382F262F7430D0F46C3025
:10042000C0F4872F90E06CE070E00E948615FC011C
:10043000E20FF11D832F90E060E370E00E948615CB
:10044000E80FF91FEE0FFF1FE95AFE4F85919491B7
:10045000089580E090E008959091BB0192FF06C05E
:10046000282F28712830F9F4877F846093FF06C015
:10047000282F28712831F1F4877E84612091BC01F6
:1004800020FF06C0382F38713830D9F4877F81605B
:1004900021FF06C0282F28712831D1F4877E816181
:1004A00094FD877E0895282F24712430F9F68B7FE0
:1004B0008860DCCF282F2471243101F78B7E88617E
:1004C000DDCF382F3171313019F78E7F8860E0CF62
:1004D000282F2171213121F78E7E8861E1CFCF93C2
:1004E000DF93EC01803E910509F475C090F58133EE
:1004F000910509F4B9C088F48932910509F4ADC0B9
:100500008A32910509F4B7C0019709F475C0CE018C
:100510000497813A9105D0F46FC08933910509F4AD
:1005200052C08238910509F44EC08533910509F413
:100530008DC0883A910530F4853A910540F3A4972F
:10054000D0645AC08F3B910508F4EEC0C0E0D0E003
:1005500053C0843E910509F45EC0A8F4823E910523
:1005600009F446C0833E910509F44AC0C11580E4F0
:10057000D80708F0E4C0C83ED105F0F1CE019A9545
:100580008F3F9E41C8CF863E910509F44FC0873EFC
:10059000910509F450C0811523E5920708F072C057
:1005A000811542E5940708F0ECC0811550E59507E8
:1005B000E8F2811561E5960708F4C4C0DC2FCC276A
:1005C000C16FD06A19C08091BB0183708823A1F0EC
:1005D000C0EED0E011C08091BB0180FDFDC09091C4
:1005E000BC0190FF09C0C3EED0E084FDAFCF04C0D2
:1005F0008091BB0182FDF7CFCE01DF91CF910895AD
:100600008091BB0182FDEBC09091BC0190FDE0CFD9
:1006100084FFF2CF9BCF8091BC0181FFEDCF809111
:10062000BB01C7EED0E084FD91CFE6CF8091BB0146
:1006300083FDF7CFE1CF8091BB0183FDD3C09091C3
:10064000BC0191FFE5CFC4EED0E0D6CF8091BB01D5
:1006500085FFD2CFC9E2D0E0CFCF8091BB0185FF2B
:10066000CBCFC5E3D0E0C8CF8091BB0186FFC4CF1C
:10067000CAE2D0E0C1CF8091BB0186FFBDCFC1E30C
:10068000D0E0BACF811549E59407B8F5811558E552
:10069000950708F08EC0811565E59607E8F4C11549
:1006A00084E5D80708F080C08C2F8695869590E069
:1006B000B5E0880F991FBA95E1F7C370DD2721E0F7
:1006C00030E0A90102C0440F551FCA95E2F7EA01C4
:1006D000C82BD92BDA6890CF95558F3F910511F033
:1006E00008F034CF8C2F0E942C02C82FD0E0DC2FD2
:1006F000CC27CC27DF71D0627FCFC1158AE5D80720
:1007000008F45CC0CE0190568115904208F01ECFCF
:100710008D2F8F710E942C0290E0982F88278827B8
:100720009F718C2BEC01E7CFC85AD0E0CC0FDD1FB6
:10073000C35EDE4F0990D881C02DD4645DCFDF70D9
:10074000D06A5ACF9C01E4E036952795EA95E1F707
:10075000237086958695837090E0F5E0880F991F49
:10076000FA95E1F7922BC37021E030E0A90102C0B5
:10077000440F551FCA95E2F7EA01C82BD92BDC6854
:100780003BCF8695869590E075E0880F991F7A9506
:10079000E1F7C370DD2721E030E0A90102C0440F7A
:1007A000551FCA95E2F7E8CFDC2FCC27C46FD06A7B
:1007B00023CFD82FCC27C06FD06A1ECF8C2F8F703D
:1007C0000E942C0234E0D695C7953A95E1F7CF7098
:1007D0009C2FEC01D06910CFC9E3D0E00DCFC2EE61
:1007E000D0E00ACFC6EED0E007CFA0E0B0E0EBEF5C
:1007F000F3E00C94A8157C010091B9018091B80137
:10080000082BC7E0D0E010E0C8010C2E02C095957F
:1008100087950A94E2F780FD09C02197A8F7D12CAB
:100820008D2DCDB7DEB7E7E00C94C415DC2EB701F3
:100830008C2F0E940B020E946F02019771F3F0CF80
:100840000F931F93CF93FC01828100811181882334
:1008500091F0662381F0C8010E94F503C82F682F2C
:10086000C8010E947601B8018C2F0E940B02CF9123
:100870001F910F910895C8010E94B001C82FF3CFB6
:10088000CF93DF93D82FC92F0E94F5036D2F7C2FB4
:100890000E940B020E946F02DF91CF91089580E0C9
:1008A0000895F894E82FE295EF70F0E041A18F7081
:1008B00021E030E0B90102C0660F771F8A95E2F7A8
:1008C000CB01962F9095942391A392A1892B82A37B
:1008D00078940895E0919801F0919901309729F06A
:1008E0000190F081E02D0995089580E00895209110
:1008F0006F01309170012817390771F090937001E2
:1009000080936F01E0919801F0919901309721F067
:100910000680F781E02D0995089520916D013091B1
:100920006E012817390771F090936E0180936D0165
:10093000E0919801F0919901309721F00084F185C0
:10094000E02D099508959C01FC0132968FEF90E00F
:100950004191461751F08F3F19F4411101C0892F81
:100960009F5F9630A9F78F3F09F40895280F311D36
:1009700087FD3A95F901628308952FB7F894809125
:10098000810190918201A0918301B09184012FBFD8
:10099000089580916C01089508950895FC019B01CC
:1009A00080915F01909160018617970740F0672B57
:1009B00029F48091E8008E778093E800C90140E037
:1009C000009741F4411106C08091E80082FF2EC0DB
:1009D00080E00895209176012223A1F12530A1F134
:1009E0002091E80023FD2CC02091E80022FDECCFEF
:1009F0002091E80020FFE4CF2091F20030E0009742
:100A000019F02830310558F041E02830310509F05F
:100A100040E02091E8002E772093E800D1CF41916B
:100A20004093F10001972F5F3F4FE9CF809176010E
:100A3000882341F0853041F08091E80083FFC4CFE6
:100A400081E0089582E0089583E00895809159013E
:100A500087FF13C08091E80082FF06C08091E80004
:100A60008B778093E80004C0809176018111F2CFEA
:100A70000895809176018823D9F38091E80080FF62
:100A8000F8CF8091E8008E77ECCF2091E400309190
:100A9000E50095E6A9018091EC008170882331F092
:100AA0008091E80080FF06C080E008952091E80072
:100AB00022FD1BC080917601882391F0853091F052
:100AC0008091EB0085FD10C02091E4003091E5009D
:100AD0004217530701F391509111DCCF84E0089540
:100AE00082E0089583E0089581E00895EF92FF92F7
:100AF0000F931F93CF938C017B010E944505C82F54
:100B000081110EC08091E80085FD11C08091E80040
:100B10008E778093E8000E944505882399F3C82FBB
:100B20008C2FCF911F910F91FF90EF900895F801B6
:100B300080818093F100F1E0EF1AF108E114F104F3
:100B400079F30F5F1F4FDECF982FE42FE270909361
:100B5000E900891308C0762F242F50E0E11111C05D
:100B600091E0980FF4CF7091EC002091ED0050913E
:100B7000F00021FD06C09F5F953049F78093E900A2
:100B800008953091EB003E7F3093EB003091ED0003
:100B90003D7F3093ED003091EB0031603093EB00FE
:100BA0007093EC002093ED005093F0002091EE0044
:100BB00027FDE1CF08950E944004282F92959F7051
:100BC000963091F060F4925F9F70923030F481E043
:100BD000203F79F030F4283E30F080E008959A5FAD
:100BE000F3CF243FD1F7089581E0283EE0F3213F81
:100BF000F9CF089581E08093E00080E28093D800EF
:100C00001092C9008FE19EE40197F1F700C0000047
:100C100087E090EBDC018093F6019093F701A093BD
:100C2000F801B093F90188E19CE00FB6F894A8951B
:100C3000809360000FBE90936000FFCFCF93DF934F
:100C4000D82FC92F81E08093E9008FEF9091E800C1
:100C500095FD07C095ED9A95F1F70000815081113F
:100C6000F5CF8091E80085FD03C0DF91CF91089515
:100C700040E050E068E070E08D2F9C2F0E947605E8
:100C80008091E8008E778093E80088E0ED2FFC2FBC
:100C9000A4E6B1E001900D928A95E1F7E6CF80934A
:100CA00061017093630160936201809176018430E9
:100CB00001F582E08093E9008FEF9091E80095FDC7
:100CC00007C095ED9A95F1F7000081508111F5CF9D
:100CD0008091E80085FF0DC040E050E063E070E0E7
:100CE00081E691E00E9476058091E8008E778093FE
:100CF000E8000895BC0183E00E944F060895BC01FE
:100D000084E00E944F0608958091B6019091BD0144
:100D1000892B80934E019091B701992391F0892BF3
:100D200080934E0120E080E591E0FC013081019646
:100D300031112F5F31E086359307B9F721110E94F9
:100D4000050248E050E06AE971E08EE491E00E941B
:100D5000D415892BA9F088E0EEE4F1E0AAE9B1E02E
:100D600001900D928A95E1F7E0919801F091990137
:100D7000309731F00280F381E02D8EE491E0099507
:100D80000895CF93C82F8823A9F08CEF8C0F813A58
:100D900098F4E0E5F1E086E591E02191C217B1F128
:100DA0008E179F07D1F76C2F8EE491E00E94A30469
:100DB0000E948406CF91089580E28C0F883068F4F9
:100DC000C77021E030E001C0220FCA95EAF7809198
:100DD000B601822B8093B601EBCF8BE58C0F83306D
:100DE00038F42C2F2452330BC9010E947704E2CF30
:100DF000C85AC731F8F6EC2FF0E0EE0FFF1FE35EA4
:100E0000FE4F808191810E948D04D4CF8C2F0E944F
:100E1000F0010E948406C7CF882339F19CEF980F18
:100E2000913A28F40E94F0010E948406089590E20D
:100E3000980F983050F4877091E001C0990F8A950F
:100E4000EAF7892F0E94FD01EFCF9BE5980F9330C1
:100E500028F480E090E00E9477040895885A873152
:100E600020F480E090E00E948D040895882339F0FA
:100E70009091B601892B8093B6010E948406089553
:100E8000882321F00E94FD010E94840608950F939B
:100E90001F93CF93DF93C62FD42F122F8823A9F04F
:100EA0006093B4010E94BD04909357018093560152
:100EB000C77081E001C0880FCA95EAF70E94360723
:100EC000DF91CF911F910F9108958091B401681324
:100ED00043C020915601309157014FB7F89480914B
:100EE000810190918201A0918301B09184014FBF53
:100EF000821B930B883C910578F56D130FC0812FF1
:100F00000E94C106812F0E940C07D77081E001C0AA
:100F1000880FDA95EAF70E944007D2CFC77001E048
:100F2000802F01C0880FCA95EAF70E94400780E22F
:100F30008D0F883050F48D2F877001C0000F8A9577
:100F4000EAF7802F0E943607DACF812F0E94C10670
:100F5000812F0E940C07B4CFC77081E001C0880FB9
:100F6000CA95EAF7D8CF80E090E00E94770480E04D
:100F700090E00E948D041092BD010E9484060895A5
:100F80001092B601E0E5F1E086E0DF011D928A955E
:100F9000E9F70E94B30708950E94C0072FEF84E38A
:100FA0009CE0215080409040E1F700C0000088E1C3
:100FB0009CE00FB6F894A895809360000FBE9093C4
:100FC0006000FFCFAAE2B0E0E8EEF7E00C94AC15C9
:100FD00089E591E0FC0101962091F100208321E058
:100FE00081369207B9F780915A01893009F456C0C9
:100FF000C8F4823009F4B0C0833009F47FC0813076
:1010000071F18091E80083FFE4C0809159019091D3
:101010005A019A3008F0DDC0E92FF0E0EB5DF94E9F
:101020000C9497158A3009F486C08B3051F7809163
:101030005901813231F780915D0190915E01892BD8
:1010400001F78091E800877F8093E8000E942605E1
:1010500080915B01809300010E94C007D2CF8091F4
:101060005901813A71F68091E800877F8093E8000A
:1010700080915D0190915E01892B61F060E080E0DC
:1010800090E070E00E94CE048091E8008B7780931E
:10109000E800B7CF68E084E691E0F3CF8091590192
:1010A000813209F0AECF80915D0190915E0102978F
:1010B00008F0A7CF8091E800877F8093E8008091B7
:1010C000E80082FF16C08091F200823031F48091F6
:1010D000F100813011F0863021F48091F10080938D
:1010E0006C018091E8008B778093E8000E942605D0
:1010F00088CF809176018111E2CF83CF8091590111
:10110000813A09F07ECF80915D0190915E01892B3B
:1011100009F077CF8091E800877F8093E800809185
:10112000E80080FFFCCF809100018093F100809166
:10113000E8008E77D9CF80915901813209F061CFD3
:101140008091E800877F8093E8000E9426058091C7
:101150005C018093580155CF80915901813A09F083
:1011600050CF8091E800877F8093E8008091E8006D
:1011700080FFFCCF80915801D8CF803889F0823829
:1011800041F580915D018F70853018F58093E900FD
:101190008091EB0085FB882780F91092E90006C05A
:1011A0008091710190917501911182609091E80098
:1011B000977F9093E8008093F1001092F100809166
:1011C000E8008E7723C0811116C080915B018130C9
:1011D00011F18091E80083FF0AC08091E800877FC9
:1011E0008093E8008091EB0080628093EB00AA96E8
:1011F000E3E00C94C815823061F780915B0188238D
:1012000089F01092E9008091E800877F8093E800E0
:101210000E942605DECF81E0933009F080E08093C4
:101220007501EFCF80915D018F702FEF280F243073
:1012300080F68093E9002091EB0020FFE2CF93300D
:1012400031F48091EB0080628093EB00DACF9091D3
:10125000EB0090619093EB0021E030E0A90102C027
:10126000440F551F8A95E2F74093EA001092EA0076
:101270008091EB008860E8CF8111ABCF10915B01CA
:101280001F778091E3008078812B8093E300809129
:10129000E800877F8093E8000E9426058091E8009F
:1012A00080FFFCCF8091E30080688093E30083E0BF
:1012B000111101C082E0809376018BCF805882307B
:1012C00008F087CF40915B0150915C014C3D83E079
:1012D000580799F583E08A838AE289834FB7F894A7
:1012E000DE01139620E03EE051E2E32FF0E0509360
:1012F0005700849120FF03C082958F703F5F8F70ED
:101300008A30C8F0895C90E08D939D932F5F2431E3
:1013100061F74FBF8091E800877F8093E8006AE221
:1013200070E0CE0101960E94CE048091E8008B7798
:101330008093E8004ECF805DE6CF20915D01309133
:101340005E01852F99278330910509F160F4813082
:10135000910509F472C0029709F03BCF8BE390E04E
:10136000E6EEF0E029C08132910509F45AC0829777
:1013700009F02FCF2115310509F469C0213031055D
:1013800009F027CF82E390E0E4E7F0E015C0CA015E
:1013900099274130B1F18230910509F43AC0892B87
:1013A00009F017CFE3E5F1E0E4918E2F90E0E3E55B
:1013B000F1E0009709F40DCF2091E800277F2093FA
:1013C000E80020915F01309160018217930708F4D3
:1013D0009C0140E02115310509F03EC041113CC09F
:1013E0008091E80082FDA1CF80917601882309F4E5
:1013F0009CCF853009F499CF8091E80083FFF0CF2E
:1014000094CFE7E4F1E0E4918E2F90E0E7E4F1E09F
:10141000D0CFE3E3F1E0E4918E2F90E0E3E3F1E05D
:10142000C8CF2115310571F02130310509F0D1CE39
:1014300089E090E0E1E1F1E0BFCF82E190E0E1E21C
:10144000F1E0BACF89E090E0E8EFF0E0B5CF80E4DA
:1014500090E0E6EAF0E0B0CF80917601882309F4CD
:1014600064CF853009F461CF8091E80083FD5DCFC2
:101470008091E80082FDB4CF8091E80080FFAACF80
:101480008091F20090E02115310519F08830910526
:1014900050F041E0089709F040E08091E8008E7735
:1014A0008093E80097CF44914093F100319621500A
:1014B00031090196E8CF803809F08BCE8091E800A1
:1014C000877F8093E800809172018093F10077CE4E
:1014D00081117FCE10915B01123008F07ACE80919D
:1014E000E800877F8093E800109372010E94260530
:1014F000112381F084E08093760142E061EC81E089
:101500000E94A40542E261EC82E00E94A405809161
:1015100076015FCE8091E30087FDECCF81E0EBCFD9
:101520008093B8010E94B30708958093B9010E9487
:10153000B307089521E030E001C0220F8A95EAF751
:101540008091B901822B0E94950A089521E030E034
:10155000A90102C0440F551F8A95E2F7CA01809580
:101560009091B90189230E94950A08952091BA01AA
:10157000809582238093BA01982F9770911113C0A0
:1015800030E0482F082E000C550B2417350759F072
:101590009091BC0192FF07C08595859585950E9425
:1015A000A60A1092BA010895CF93C091BC01C2FB64
:1015B000992790F9981791F080FBC2F9C093BC016C
:1015C0006091BB0184E090E00E94EF156C2F82E2F5
:1015D00090E00E94EF1582E00E94B60ACF91089534
:1015E000A8E0B0E0E6EFFAE00C949F15FE0131961A
:1015F00088E0DF011D928A95E9F79DE0E92E91E0F0
:10160000F92E8F0121E1622E21E0722E2F01AA24F2
:10161000A394B12C4DE1842E41E0942EF7018191E9
:101620007F018F3F09F446C0F894E82FE295EF70F0
:10163000F0E021A18F70A50102C0440F551F8A95CB
:10164000E2F7CA01922F982B91A392A1809589234A
:1016500082A3789400C0E1E1F1E021E030E0C12C08
:10166000D12C41914F3F09F45DC0A42FA295AF70DA
:10167000A05EB0E08C9190E04F7002C09595879588
:101680004A95E2F7817081114DC0C901C82AD92A53
:10169000220F331F8E169F0621F7F70131978081A5
:1016A0008F3F11F00E94510450EA5A95F1F7D8018A
:1016B000CD92DC920E5F1F4F6E147F0409F0AECF07
:1016C00048E050E0B20180E991E00E94D41511E0B9
:1016D000892B59F510E0809187018823F1F0209142
:1016E0008501309186014FB7F894809181019091E6
:1016F0008201A0918301B09184014FBF821B930BA3
:10170000059758F088E0E0E9F1E0A8E8B1E0019041
:101710000D928A95E1F710928701812F2896E0E1DA
:101720000C94BB1580E090E0B1CF88E0F201A0E915
:10173000B1E001900D928A95E1F7109387010E9424
:10174000BD049093860180938501C9CF68EE7EEF3A
:1017500080E090E00E940D1660E082E090E00E9440
:10176000EF1560E083E090E00E94EF151092B80161
:1017700060E084E090E00E94EF1564E082E290E097
:101780000E94EF1560E085E090E00E94EF1560E0B8
:1017900086E090E00E94EF156FEF87E090E00E94F6
:1017A000EF1540E050E0BA0188E090E00E94011699
:1017B00060E08DE090E00E94EF1540E050E0BA015B
:1017C00088E190E00E94011660E087E190E00E94CD
:1017D000EF1540E050E0BA018CE190E00E94011664
:1017E00060E070E080E290E00E940D1640E050E082
:1017F000BA0188E190E00E94011640E050E0BA0191
:101800008FE090E00E94011640E050E0BA0183E1D1
:1018100090E00E9401160895CF9384E090E00E942A
:10182000E115C82F82E290E00E94E115982F8C2FDD
:10183000CF910895A0E0B0E0E0E2FCE00C94A715A1
:101840007C01FC019081818123813481232B09F467
:10185000D9C089238F3F09F4D5C061E0C7010E9438
:101860002004EC01843FFCE59F0709F4B4C0C0F5F7
:10187000893D9C4509F4ABC028E241E0CA3D8CE5B6
:10188000D80709F4A6C026E241EE61EEC83D9CE50A
:10189000D90709F4A3C0F7018281882309F4BFC0E6
:1018A0001092B401C6318CE5D80708F0F7C0C230F9
:1018B0009CE5D90708F4C8C10E940C0C9093BC01A8
:1018C0008093BB01FE01E350FC458091BB01816028
:1018D000E331F10508F0BDC0E15DF94E0C949715B8
:1018E000863FECE59E0709F496C027E245EE66EEDA
:1018F000873FFCE59F0709F471C0853F9C4509F4CB
:1019000086C0F7018281811196C0F7018281008132
:101910001181882309F4B4C1C8010E94F503C82FBE
:10192000682FC8010E947601B8018C2F0E940B021B
:101930000E946F02D82FC92FF701D280C580C294B0
:101940008FE0C8228091BA0187708823B9F00D2DED
:10195000DD20A9F0892F807F803421F080E28D0F77
:10196000883060F08091BC0182FF08C082E00E9454
:10197000B60A8091BA01877001E0811100E08C2FD6
:1019800082958F70883009F45EC208F09DC1843062
:1019900008F07BC11C2F1F70823008F4A6C1C07FE5
:1019A000C03211F01295107FDD2309F4D4C1D1307B
:1019B00009F40EC2DD2009F418C2CC2009F40EC2CD
:1019C000F701858180FFA6C18F70858307C227E25A
:1019D00045EE65EE03C026E241EE60EEF70182813E
:1019E0000E9447078091BA018770882359F0F70158
:1019F0008281882339F08091BC0182FF03C082E09C
:101A00000E94B60ACDB7DEB7E8E00C94C31527E212
:101A100045EE64EEE3CF26E241EE62EEDFCFC63163
:101A2000DC4509F072CF8091B5018111EEC089E2E9
:101A30000E94F001E7C01092B401C2362DE5D20732
:101A4000D1F40E940C0C9093BC01809584FB80958E
:101A500084F98093BB016091BB01C091BC0184E01B
:101A600090E00E94EF156C2F82E290E00E94EF154B
:101A70000E94C007B7CFC3363DE5D30708F412CFA5
:101A8000C63AEDE5DE0709F0F0C00E940C0C909319
:101A9000BC01809580FB809580F9DBCFCE018B5F08
:101AA0009C45099708F099C00E940C0C9093BC01CA
:101AB0008093BB01FE01EC5FFC45E830F10580F44A
:101AC000EE5BF94E0C9497158091BB018260C1CFFB
:101AD0008091BB018460BDCF8091BB018860B9CF8C
:101AE0008091BC0181608093BC01B5CF8091BC0125
:101AF0008260F9CF8091BB018061ABCF8091BB0147
:101B00008062A7CF8091BB018064A3CF0E94C007F1
:101B10008091BB0180689DCF8091BB018C6099CF83
:101B20008091BC018360DFCF8091BB018E7F91CF1C
:101B30008091BB018D7F8DCF8091BB018B7F89CF41
:101B40008091BB01877F85CF8091BC018E7FCBCFF9
:101B50008091BC018D7FC7CF8091BB018F7E79CFF3
:101B60008091BB018F7D75CF8091BB018F7B71CF41
:101B70000E94C0078091BB018F776BCF8091BB0122
:101B8000837F67CF8091BC018C7FADCF8091BB01FB
:101B900082FB992790F921E0922790FB82F990FB34
:101BA00083F957CF8091BC01982F909591708E7FCB
:101BB000892B90FB81F997CF0E94C0079091BB01C0
:101BC000892F97FB87F9805844CF61E08EE090E041
:101BD0000E94EF1540CF60E0F9CFC631FCE5DF078A
:101BE000B1F48091B6018A7A91E0811101C090E050
:101BF0009093B50165E3811101C069E28EE491E043
:101C00000E94A3040E948406EDCE85E311CFCC355B
:101C10002DE5D20799F160F4CF3D8CE5D80759F155
:101C200081E0CB35DD4509F070CE0E94D40A6DCE3F
:101C3000CD35DD4509F069CE8091BC0182FB882756
:101C400080F991E08927F1CFC115DC4509F05DCE1F
:101C50000E94C0073FEF84E39CE0315080409040F9
:101C6000E1F700C000000E94FA05C83ADD4509F01E
:101C70004CCE0E94CC070E94A60BFBCF80E0D5CFB4
:101C8000C8010E94B001C82F4FCE843009F4BEC0F5
:101C90000023A9F08091BA0180FD11C0F7011282E2
:101CA0008595859585950E949A0AC7010E941A0C10
:101CB0008091BA018595859585950E94A60A60E078
:101CC000C7010E9420049ECE893009F42BC18A5F8F
:101CD0008F708230E8F6D23F09F035C18C2F8F71BA
:101CE000D1102EC10E949A0ADBC0C03110F01295AB
:101CF000107FDD20B9F0112369F080E28D0F88306C
:101D000010F0D11109C08091B601812B8093B601EA
:101D10000E9484068D2F2FC08091BD01812B80935E
:101D2000BD01F6CF8D2F0E940C07112309F4B0CF0F
:101D300080E28D0F883010F0D11104C0812F0E94F5
:101D4000FD0106C010958091BD0181238093BD01E6
:101D50000E9484069DCF2091BC0122FD16C0DD208B
:101D600069F0112339F08091B601812B8093B6017F
:101D70000E94840680E00E94C1068ACF80E00E9413
:101D80000C07112309F484CFD9CFDD20A1F0909165
:101D9000B701812F892BC11003C00E94360778CF6D
:101DA000F1E0CF12FACF22FF73CF981709F470CF6A
:101DB0008093B7016DCFC11006C00E940502812F2C
:101DC0000E94400765CF21E0C21609F461CFF5CF2C
:101DD000DD2031F032E03C1508F45ACF812FDDCF01
:101DE00081E08C1508F454CFEACFCC2041F3D933ED
:101DF00049F4FFEF27EE33E0F15020403040E1F7A7
:101E000000C000008D2F0E940C0742CF8C2F8695BA
:101E100086958370882369F0813009F039CF8D2F42
:101E20009C2F9370D11002C080E090E00E948D043E
:101E30002FCF8D2F9C2F9370D11002C080E090E0A7
:101E40000E94770425CF8C2F8370811134C0D1106C
:101E500027C04D2F429546954770440F440F8D2F54
:101E60008F70042E01C0880F0A94EAF7D071DD2329
:101E700041F02FE030E001C0220F4A95EAF7D22F5F
:101E8000D095C695C695C370C23081F0C33061F05D
:101E90002091B801C13039F08D2B82230E94900A25
:101EA0000E946A04F5CE822B8D2BF8CF8D2B90915A
:101EB000B8018927F3CFDD2051F1C0FFF1CF4D2FBD
:101EC000429546954770440F440F8D2F8F70042E16
:101ED00001C0880F0A94EAF7D071DD2341F02FE0AA
:101EE00030E001C0220F4A95EAF7D22FD095C6956F
:101EF000C695C370C23089F0C33069F02091B90132
:101F0000C13041F08D2B82230E94950AC9CF8230C7
:101F100038F2D5CF822B8D2BF7CF8D2B9091B90135
:101F20008927F2CFCF70DD2039F08C2F0E949A0ADA
:101F30008D2F0E943607B4CF8D2F0E9440078C2F23
:101F40000E94A60AADCFD33F70F4D03FB9F0D13F85
:101F5000C9F1DD2009F45DC0CC2009F457C08D2FF4
:101F60000E94C1069DCFD33FF1F0D43F39F1D1108B
:101F7000F3CFC1105CC08C2F8F71E2CFDD2081F0D8
:101F800081E08C1508F48CCFCF7181E090E0FC01EA
:101F900001C0EE0FCA95EAF78091B9018E27B4CF40
:101FA000F2E0CF16EFCF80E0DD2009F4ADCFCF71A6
:101FB00081E001C0880FCA95EAF7A6CF8091BC01E5
:101FC00082FD06C08C2F8F71DD2009F4B9CF8ACE37
:101FD000DD2089F0CF718C2F0E949A0A8091BC017C
:101FE00082FF07C08C2F880F880F880F8360809333
:101FF000BA018C2F77CE81E00E94B60A21E02C1521
:1020000008F04ECF82E00E94B60A4ACF8C2F8F7123
:1020100069CECC2009F4AFCFD93349F43FEF87EE36
:1020200093E0315080409040E1F700C000008D2FD8
:102030000E940C0735CF1F93CF93DF938091F5015A
:10204000803108F04CC08091F201882309F447C028
:102050002091BF014091BE01D091F001C091F101EA
:10206000A091F301B091F4011C2F1D234217B9F187
:1020700030E0109709F445C01F3F09F442C0C90180
:1020800066E070E00E948615FC01E054FE4F8181FD
:10209000C81330C080818D132DC08281811123C06F
:1020A000838194818A1B9B0B883C910518F5809154
:1020B000F5018F7080618093F501C90166E070E0E1
:1020C0000E948615FC01EB53FE4F90819F7090613A
:1020D000908380EF91E00E941A0C0E94E601DF914C
:1020E000CF911F9108952F5F3F4F277033274213E1
:1020F000C6CFF5CF2F5F3F4F277033274213BCCF9A
:10210000EECF2F5F3F4F2770B1CF8F929F92AF924C
:10211000BF92DF92EF92FF920F931F93CF93DF93C3
:10212000CDB7DEB72B970FB6F894DEBF0FBECDBF8D
:102130008C0185E0F801DE01179601900D928A95D9
:10214000E1F7F801F280A380B48080EF882E81E06F
:10215000982E9091F0012091F1014091F30150915E
:10216000F4014115510509F419C1822F89238F3FCC
:1021700009F414C1D090F201B501641B750BDD2088
:1021800009F4DEC08091F501683C710508F0BAC021
:102190003181803108F078C0EF2C321312C02081D9
:1021A00029130FC0F1101BC08F7080618093F5015F
:1021B000C4010E941A0C8091F501F8018583E12C7D
:1021C00050C04F81A885AB2881F0842F8A238F3F90
:1021D00061F02091BF01B091BE01FF20F1F080912C
:1021E000F50181608093F501EACFFF2041F3F7CF3D
:1021F00030E0C90166E070E00E948615FC01E05401
:10220000FE4F81818A1306C08081841303C08281BE
:102210008111D5CF2F5F3F4F27702B13E9CF8F81CF
:1022200098850E944004292F22952F70903248F4FF
:102230009F70992311F08823A1F0805E883088F088
:1022400004C0225F2F70223028F0C8010E941A0CAF
:10225000ED2C07C09F70992381F3F801958190318F
:1022600060F78E2D2B960FB6F894DEBF0FBECDBF54
:10227000DF91CF911F910F91FF90EF90DF90BF9072
:10228000AF909F908F900895321312C02081291330
:102290000FC0F1100DC08583C8010E941A0C86E0A2
:1022A000F801A0EFB1E001900D928A95E1F727C007
:1022B000F801808191810E94DB05882309F46AC0BE
:1022C000FF2009F467C08091F501803270F0209101
:1022D000F0013091F1013A8329831B82BD82AC82E7
:1022E0008E83CE0101960E941A0C86E0F801A0EFC1
:1022F000B1E001900D928A95E1F70E941B10EE2447
:10230000E394AFCF803150F480EF91E00E941A0C3B
:1023100086E0F40111928A95E9F751CF31812313B8
:10232000C7CF20812913C4CFF110C2CF8583C80144
:102330000E941A0C86E0F40111928A95E9F7DFCF2A
:10234000683C710528F7FF2029F18181281316C008
:102350008081891313C08091F50180FDA0CF803169
:1023600008F49DCF8583807F803F09F495CF8581D8
:10237000982F907F905F8F70892B8DCFF80180818F
:1023800091810E94DB058111B0CF8091F5018160C0
:102390008093F501C8010E941A0CB1CFFF20D1F340
:1023A000F801808191810E94DB05882399F386E002
:1023B000F801A0EFB1E001900D928A95E1F78091CC
:1023C000F0019091F1010E94400497CFA7E1B0E0A5
:1023D000ECEEF1E10C94AD154B8B5C8B962F6D8B75
:1023E0007E8B8F8B61111092BD011A8A85E0FE01F0
:1023F0007396DE011D9601900D928A95E1F79F87F5
:1024000086E0FE013D96DE01179601900D928A95B9
:10241000E1F7CE0107960E948510811132C086E057
:10242000FE013796DE01119601900D928A95E1F733
:102430009F8128858091BE014091BF016A857B857F
:10244000672BF9F092239F3FE1F090E09C012F5F12
:102450003F4F2770332750E024173507E1F066E03F
:1024600070E00E948615DC01A054BE4F86E0FE019C
:10247000319601900D928A95E1F72093BE010E945A
:10248000E6018091BF019091BE01891312C0679649
:10249000E2E00C94C9150E94C0071092BE01109290
:1024A000BF0186E0E0EFF1E0DF011D928A95E9F7D8
:1024B000E8CF90E066E070E00E94861580549E4F61
:1024C0000E948510882319F38091BF0190E0019646
:1024D000877099278093BF01D4CF00D000D00F928E
:1024E000CDB7DEB784B7877F84BF0FB6F894A895C1
:1024F00080916000886180936000109260000FBE40
:1025000080E890E00FB6F8948093610090936100AA
:102510000FBE8FE494E090934D0180934C01109294
:10252000E2001092E1008091E00081608093E00081
:102530008091D8008F778093D80019BC8091630078
:1025400081608093630010927301809163008E7F9D
:102550008093630081E0809373011092E2001092F7
:10256000E1008091D8008F778093D8008091D800C7
:1025700080688093D8008091D8008F7D8093D800A8
:1025800084E089BD86E089BD09B400FEFDCF1092CC
:10259000760110927201109275011092710142E061
:1025A00060E080E00E94A4058091E1008E7F80932E
:1025B000E1008091E20081608093E2008091E2007E
:1025C00088608093E2008091E0008E7F8093E0003D
:1025D0008091E20084608093E2007894809176019B
:1025E000882399F08091E9001091EC00179511274C
:1025F00017958F70182B1092E9008091E80083FDE9
:102600000E94E2071F701093E90082E084BD93E00E
:1026100095BD9AEF97BD80936E0085E60E945104A8
:1026200084E60E94510486E60E94510487E60E94D7
:10263000510401E111E0D8018D918D018F3F11F01E
:102640000E945104B1E00D311B07A9F788E0E8E8CA
:10265000F1E0DF01282F1D922A95E9F7E0E9F1E08A
:10266000DF011D928A95E9F780E090E00E94E9156C
:10267000883E9E4F11F00E94A60B82E090E00E94DF
:10268000E115809377010E940C0C9093BC0180931C
:10269000BB010E94F00AEFE3FCE93197F1F700C0BB
:1026A00000000E94F00A8091880180FF08C06FEF4F
:1026B0007FEF80E090E00E940D160E94FA0583E013
:1026C00090E00E94E1150E94900A81E091E09093D1
:1026D000990180939801E8E1CE2ED12CF0E46F2E81
:1026E000A0E9AA2EA1E0BA2EB4E07B2E16E0812E3E
:1026F00099249A9480917601853049F480917601ED
:10270000853009F449C00E94C0070E946A040E94F3
:10271000F00A882359F08FB7F894409181015091C5
:10272000820160918301709184018FBFE8E8F1E03C
:10273000A8E7B1E000E010E0219131918D919D91E9
:1027400082179307A1F0822793277C0141E0E422BE
:10275000FF2460E0E114F10409F070C0EE24E3947A
:10276000F12C6F5FEE0CFF1C6C3009F061C00F5F45
:102770001F4F0430110501F799829A821B820E9433
:10278000BD048160782F9D838C8349815A816B8140
:10279000892F0E94E61172C080917601843009F180
:1027A000109274010FB6F894A895C09260000FBE05
:1027B0006092600083B7817F846083BF83B781604C
:1027C00083BF7894889583B78E7F83BF0FB6F894C4
:1027D000A8958091600088618093600010926000ED
:1027E0000FBE80917501882309F488CF0E94F00AFA
:1027F000E8E8F1E081919191892B21F4AE16BF06B2
:10280000C9F77CCF79BC89BC09B400FEFDCF8091AB
:10281000D8008F7D8093D8008091E0008260809303
:10282000E0008091E00081FDFCCF0E94C00766CFF0
:10283000AC014E215F21452B09F493CF69830A83B4
:102840002E213F2181E0232B09F480E08B830E941D
:10285000BD048160782F9D838C8349815A816B816F
:10286000892F0E94E611000F111FF801E858FE4F52
:10287000808191818E259F25918380830E946A04A7
:1028800090918001891709F435CF8093800132CF70
:102890001F921FB61F9211248F939F93AF93BF93E4
:1028A00080917401811113C0809181019091820106
:1028B000A0918301B09184014196A11DB11D809327
:1028C000810190938201A0938301B0938401BF9111
:1028D000AF919F918F911F901FBE1F901895789474
:1028E0001F921FB61F9211248F939F93AF93BF9394
:1028F0008091810190918201A0918301B091840126
:102900000196A11DB11D8093810190938201A09336
:102910008301B0938401BF91AF919F918F911F90DC
:102920001FBE1F9018951F920F920FB60F92112481
:102930002F933F934F935F936F937F938F939F93C7
:10294000AF93BF93EF93FF938091E10082FF09C0A3
:102950008091E20082FF05C08091E1008B7F80932F
:10296000E1008091E10080FF17C08091E20080FFCC
:1029700013C08091E2008E7F8093E2008091E2009C
:1029800080618093E2008091D80080628093D800BB
:1029900019BC85E0809376018091E10084FF29C015
:1029A0008091E20084FF25C084E089BD86E089BD76
:1029B00009B400FEFDCF8091D8008F7D8093D800B0
:1029C0008091E1008F7E8093E1008091E2008F7E14
:1029D0008093E2008091E20081608093E200809128
:1029E0007201882309F441C084E0809376018091CC
:1029F00076018091E10083FF27C08091E20083FF90
:102A000023C08091E100877F8093E10082E0809382
:102A10007601109272018091E1008E7F8093E10037
:102A20008091E2008E7F8093E2008091E2008061DD
:102A30008093E20042E060E080E00E94A405809183
:102A4000F00088608093F000FF91EF91BF91AF910B
:102A50009F918F917F916F915F914F913F912F91B6
:102A60000F900FBE0F901F9018958091E30087FF85
:102A700002C083E0BACF81E0B8CF1F920F920FB6A9
:102A80000F921124FF920F931F932F933F934F9315
:102A90005F936F937F938F939F93AF93BF93CF93E6
:102AA000DF93EF93FF9309EE10E0F8018081C0916E
:102AB000EC00C795CC27C7958F70FC2EF82A1082A2
:102AC000C0EFD0E08881877F888378940E94E207F6
:102AD000F8011082888188608883CF2DCF70C083F1
:102AE000FF91EF91DF91CF91BF91AF919F918F9126
:102AF0007F916F915F914F913F912F911F910F9116
:102B0000FF900F900FBE0F901F901895002455272F
:102B100004C0080E591F880F991F009729F0769559
:102B20006795B8F37105B9F7802D952F0895EE0FCD
:102B3000FF1F0590F491E02D09942F923F924F9240
:102B40005F926F927F928F929F92AF92BF92CF923D
:102B5000DF92EF92FF920F931F93CF93DF93CDB746
:102B6000DEB7CA1BDB0B0FB6F894DEBF0FBECDBFBE
:102B700009942A88398848885F846E847D848C848F
:102B80009B84AA84B984C884DF80EE80FD800C8198
:102B90001B81AA81B981CE0FD11D0FB6F894DEBF7B
:102BA0000FBECDBFED010895FB01DC0104C08D9186
:102BB0000190801921F441505040C8F7881B990BAF
:102BC0000895F999FECF92BD81BDF89A992780B5F5
:102BD0000895A8E1B0E042E050E00C941516262FCD
:102BE000F999FECF92BD81BDF89A019700B4021603
:102BF00039F01FBA20BD0FB6F894FA9AF99A0FBEB1
:102C000008950396272F0E94F0150E94EF15252F97
:102C10000E94F015242F0C94F0150196272F0E9486
:102C2000F0150C94EF15DC01CB01FC01F999FECFF6
:102C300006C0F2BDE1BDF89A319600B40D92415044
:102C40005040B8F70895F894FFCFBD08E308E908AD
:102C5000E308E9083C095E09E9085B0A680A640DB3
:102C6000680D6C0D7A0D7E0D820D860D8C0D940D08
:102C7000980D9C0DA00DAC0DB00DB40DB80DBE0D92
:102C8000DC0DC60D760DA40DA80D900DC20DD20D54
:042C9000E50DEB0D56
:102C940001C9041E06CC047A067F06CD0465646669
:102CA40067363534333096959493929190E200E9E7
:102CB40000EA00B500B600B700CD008301CC008A5D
:102CC40001920194012102230224022502260227F3
:0C2CD400022A02B300B4006F0070000080
:00000001FF
